{
  "transactions": [
    {
      "hash": "0x0395d2b7c3ee3fab93efbe7d62fbbfcf252902b89ab917b0dc10c1a3a81a437d",
      "transactionType": "CREATE",
      "contractName": "GetPyth",
      "contractAddress": "0x5fbdb2315678afecb367f032d93f642f64180aa3",
      "function": null,
      "arguments": null,
      "transaction": {
        "from": "0xf39fd6e51aad88f6f4ce6ab8827279cfffb92266",
        "gas": "0xa9d3e",
        "value": "0x0",
        "input": "0x6080604052348015600e575f5ffd5b50732880ab155794e7179c9ee2e38200202908c17b435f5f6101000a81548173ffffffffffffffffffffffffffffffffffffffff021916908373ffffffffffffffffffffffffffffffffffffffff1602179055506108498061006f5f395ff3fe60806040526004361061001d575f3560e01c8063526cc8ae14610021575b5f5ffd5b61003b60048036038101906100369190610324565b610051565b604051610048919061043b565b60405180910390f35b61005961024b565b5f5f5f9054906101000a900473ffffffffffffffffffffffffffffffffffffffff1673ffffffffffffffffffffffffffffffffffffffff1663d47eed4586866040518363ffffffff1660e01b81526004016100b59291906105ca565b602060405180830381865afa1580156100d0573d5f5f3e3d5ffd5b505050506040513d601f19601f820116820180604052508101906100f49190610600565b90505f5f9054906101000a900473ffffffffffffffffffffffffffffffffffffffff1673ffffffffffffffffffffffffffffffffffffffff1663ef9e5e288287876040518463ffffffff1660e01b81526004016101529291906105ca565b5f604051808303818588803b158015610169575f5ffd5b505af115801561017b573d5f5f3e3d5ffd5b50505050505f7f5dd5ede8b038c39f015746942820595ed69f30c00c3d3700f01d9ec55e0277005f1b90505f5f9054906101000a900473ffffffffffffffffffffffffffffffffffffffff1673ffffffffffffffffffffffffffffffffffffffff1663a4ae35e082866040518363ffffffff1660e01b8152600401610201929190610652565b608060405180830381865afa15801561021c573d5f5f3e3d5ffd5b505050506040513d601f19601f8201168201806040525081019061024091906107e8565b925050509392505050565b60405180608001604052805f60070b81526020015f67ffffffffffffffff1681526020015f60030b81526020015f81525090565b5f604051905090565b5f5ffd5b5f5ffd5b5f5ffd5b5f5ffd5b5f5ffd5b5f5f83601f8401126102b1576102b0610290565b5b8235905067ffffffffffffffff8111156102ce576102cd610294565b5b6020830191508360208202830111156102ea576102e9610298565b5b9250929050565b5f819050919050565b610303816102f1565b811461030d575f5ffd5b50565b5f8135905061031e816102fa565b92915050565b5f5f5f6040848603121561033b5761033a610288565b5b5f84013567ffffffffffffffff8111156103585761035761028c565b5b6103648682870161029c565b9350935050602061037786828701610310565b9150509250925092565b5f8160070b9050919050565b61039681610381565b82525050565b5f67ffffffffffffffff82169050919050565b6103b88161039c565b82525050565b5f8160030b9050919050565b6103d3816103be565b82525050565b6103e2816102f1565b82525050565b608082015f8201516103fc5f85018261038d565b50602082015161040f60208501826103af565b50604082015161042260408501826103ca565b50606082015161043560608501826103d9565b50505050565b5f60808201905061044e5f8301846103e8565b92915050565b5f82825260208201905092915050565b5f819050919050565b5f82825260208201905092915050565b828183375f83830152505050565b5f601f19601f8301169050919050565b5f6104a6838561046d565b93506104b383858461047d565b6104bc8361048b565b840190509392505050565b5f6104d384848461049b565b90509392505050565b5f5ffd5b5f5ffd5b5f5ffd5b5f5f83356001602003843603038112610504576105036104e4565b5b83810192508235915060208301925067ffffffffffffffff82111561052c5761052b6104dc565b5b600182023603831315610542576105416104e0565b5b509250929050565b5f602082019050919050565b5f6105618385610454565b93508360208402850161057384610464565b805f5b878110156105b857848403895261058d82846104e8565b6105988682846104c7565b95506105a38461054a565b935060208b019a505050600181019050610576565b50829750879450505050509392505050565b5f6020820190508181035f8301526105e3818486610556565b90509392505050565b5f815190506105fa816102fa565b92915050565b5f6020828403121561061557610614610288565b5b5f610622848285016105ec565b91505092915050565b5f819050919050565b61063d8161062b565b82525050565b61064c816102f1565b82525050565b5f6040820190506106655f830185610634565b6106726020830184610643565b9392505050565b5f5ffd5b7f4e487b71000000000000000000000000000000000000000000000000000000005f52604160045260245ffd5b6106b38261048b565b810181811067ffffffffffffffff821117156106d2576106d161067d565b5b80604052505050565b5f6106e461027f565b90506106f082826106aa565b919050565b6106fe81610381565b8114610708575f5ffd5b50565b5f81519050610719816106f5565b92915050565b6107288161039c565b8114610732575f5ffd5b50565b5f815190506107438161071f565b92915050565b610752816103be565b811461075c575f5ffd5b50565b5f8151905061076d81610749565b92915050565b5f6080828403121561078857610787610679565b5b61079260806106db565b90505f6107a18482850161070b565b5f8301525060206107b484828501610735565b60208301525060406107c88482850161075f565b60408301525060606107dc848285016105ec565b60608301525092915050565b5f608082840312156107fd576107fc610288565b5b5f61080a84828501610773565b9150509291505056fea26469706673582212200d42ca06bdb85a58640ee3d2fd01fe5de87a7d97c5d5ec0da9c26c4985c963ae64736f6c634300081c0033",
        "nonce": "0x0",
        "chainId": "0xdef1"
      },
      "additionalContracts": [],
      "isFixedGasLimit": false
    },
    {
      "hash": "0x0150349a62c677afa1847a124c9f57b646bacad2e9f7d8efca8360f8613e84a3",
      "transactionType": "CALL",
      "contractName": "GetPyth",
      "contractAddress": "0x5fbdb2315678afecb367f032d93f642f64180aa3",
      "function": "getKbtcUsdPrice(bytes[],uint256)",
      "arguments": [
        "[0x504e41550100000003b801000000040d001bf10eb1f276fea8dc0e760fe82c4e69952c1672b9626843d676a3d9cdd77d1e61f0ba8995109374926ebb1e79b511d30c216621ce55f4b13fc7ac3dd7c0bea301027d4587a8c320e12dc25eb3dfb177b41a3a60475e4eb5d26491d3e23a75b6b5ed6e31ef2de63a26f738f3efb38b4d435542c86e51e18fa3c8c083a12edaa75e81010319c4694f35b6a39df8b0dfb4c6d292251292ce2b5852ec8551ccfa6bfd39ec00543ea29b532ce7cbe04b2896bc4711b3f361fee36f3f2b24537fa8ff8bbc8c890104019cb00f8532749f5dc987ccbcc87d0e9fb7dc3c6cacb6d6dd6ebbb53d803a1f36c72e32f28e6879959c9af1d5dddbc6185378a9fc2b88268820b2323f08e8780006f2c8252289d3ac6528d8a54892db86b21f0a1963938e30c3bd3c5a0e485502b966d01a32ba37df20f25b09185d2fe31eadc2d18f7c3a98cb6c8cac1d7c20c3e701083c934d8abfefd30f0f510bfc0bca83674fb98c919295ba29defb320bc34fed79428b1a9b3aca8bb5bb1cceb3e572a5f7f57313b29b3b8f0cfea4171c7739cec9000b7d3a8bb06ca3206c7a1d62e967d826fd5fec53dd031dc067409a2c7361a1f7a47f2296321fd6dbc4459703b89e55e310fb7fa8f5d2b3dc5fd0c2c32b823d39b7010c24af5cb2f6a9c6bcae44ccc798551d613a6ee7b4ac5fa8d804775e217a81e0157e197bbc874837c5cc03b81af945e7ce9c9cd9a3bbfbdcc3ffe43ac36046fe37000d77165b7326898ca4e80de6e698b6109afce23beb6d729377e942495d2ec0c69c6d5858298afaca7fc196574e382124d2f0dfa4a1e02bc019eb8092406ddb7aac010e3b8dadad7047fcf76f803a5c372b5160be775d4ee69f25814763b5a81495d2006b2c48e2f57eb549c27e1b636e9fea83f15049f8bd3b1942cd4ba2a3ede78bc8010f2382fb51dba81ff5f3ae32a4062dbe19201a12394be0209354ed23d81be1f9677d1cecba3cbc97b4474d8d7e0e3811e70c7ff8cdd9514493f8f118a14d93f8a2011000f6be2e8ea111fe730efa2e34c1b9e5ae734941fc56317fe938291a0f8d62c00ed77440da464f373e283c090698825ac6be680060b8b8bd65824e595aff7670011169bec5331c255458cb0e7fe2a769424b89fc512699aa718c45e627ff5bc3c168764e0c2aea27c7cd93621b5284c7427a1dc8e569eaebea0a8d31fdcfcf81bacd0167d41bbb00000000001ae101faedac5851e32b9b23b5f9411a8c2bac4aae3ed4dd7b811dd1a72ea4aa7100000000071b2de2014155575600000000000c28352c000027108c4998cbd2597ba1063a502db85e03530a735ffd010055005dd5ede8b038c39f015746942820595ed69f30c00c3d3700f01d9ec55e0277000000000005f5e9770000000000000001fffffff80000000067d41bbb0000000067d41bbb0000000005f5e10000000000000000010ce0f0a887c52885bbcb0eb8bd732776b5d6f92ce1f1c57b8ff0b427e553ec5006d5ae8ff57c48a8a1d9e824a0bac70136ad8401914cfe7cdd30ca18acda87b1afde8cab090b458d7d5f557d07b4c671d816c4e447a5c9da7ae4fe8e2888bb89f79f82e2a3dfa8b1be79cba0451f417286a9563a5f6c1c1a4339d78f582ec35a286f65bd7dc31d70ffaa7078d362120b7f6a89356cc703fee08374f995670153545dd427d38d68ceb3b506678de863004f4147ce3fe461340e0d79864581deadb8f69ca31b95fce793fef3ff1d87a8bdded9753e15413badab66885c85d557743e98356e54f0947ebe3ff56e391b4dc305]",
        "100000"
      ],
      "transaction": {
        "from": "0xf39fd6e51aad88f6f4ce6ab8827279cfffb92266",
        "to": "0x5fbdb2315678afecb367f032d93f642f64180aa3",
        "gas": "0x478db",
        "value": "0x16345785d8a0000",
        "input": "0x526cc8ae000000000000000000000000000000000000000000000000000000000000004000000000000000000000000000000000000000000000000000000000000186a000000000000000000000000000000000000000000000000000000000000000010000000000000000000000000000000000000000000000000000000000000020000000000000000000000000000000000000000000000000000000000000050b504e41550100000003b801000000040d001bf10eb1f276fea8dc0e760fe82c4e69952c1672b9626843d676a3d9cdd77d1e61f0ba8995109374926ebb1e79b511d30c216621ce55f4b13fc7ac3dd7c0bea301027d4587a8c320e12dc25eb3dfb177b41a3a60475e4eb5d26491d3e23a75b6b5ed6e31ef2de63a26f738f3efb38b4d435542c86e51e18fa3c8c083a12edaa75e81010319c4694f35b6a39df8b0dfb4c6d292251292ce2b5852ec8551ccfa6bfd39ec00543ea29b532ce7cbe04b2896bc4711b3f361fee36f3f2b24537fa8ff8bbc8c890104019cb00f8532749f5dc987ccbcc87d0e9fb7dc3c6cacb6d6dd6ebbb53d803a1f36c72e32f28e6879959c9af1d5dddbc6185378a9fc2b88268820b2323f08e8780006f2c8252289d3ac6528d8a54892db86b21f0a1963938e30c3bd3c5a0e485502b966d01a32ba37df20f25b09185d2fe31eadc2d18f7c3a98cb6c8cac1d7c20c3e701083c934d8abfefd30f0f510bfc0bca83674fb98c919295ba29defb320bc34fed79428b1a9b3aca8bb5bb1cceb3e572a5f7f57313b29b3b8f0cfea4171c7739cec9000b7d3a8bb06ca3206c7a1d62e967d826fd5fec53dd031dc067409a2c7361a1f7a47f2296321fd6dbc4459703b89e55e310fb7fa8f5d2b3dc5fd0c2c32b823d39b7010c24af5cb2f6a9c6bcae44ccc798551d613a6ee7b4ac5fa8d804775e217a81e0157e197bbc874837c5cc03b81af945e7ce9c9cd9a3bbfbdcc3ffe43ac36046fe37000d77165b7326898ca4e80de6e698b6109afce23beb6d729377e942495d2ec0c69c6d5858298afaca7fc196574e382124d2f0dfa4a1e02bc019eb8092406ddb7aac010e3b8dadad7047fcf76f803a5c372b5160be775d4ee69f25814763b5a81495d2006b2c48e2f57eb549c27e1b636e9fea83f15049f8bd3b1942cd4ba2a3ede78bc8010f2382fb51dba81ff5f3ae32a4062dbe19201a12394be0209354ed23d81be1f9677d1cecba3cbc97b4474d8d7e0e3811e70c7ff8cdd9514493f8f118a14d93f8a2011000f6be2e8ea111fe730efa2e34c1b9e5ae734941fc56317fe938291a0f8d62c00ed77440da464f373e283c090698825ac6be680060b8b8bd65824e595aff7670011169bec5331c255458cb0e7fe2a769424b89fc512699aa718c45e627ff5bc3c168764e0c2aea27c7cd93621b5284c7427a1dc8e569eaebea0a8d31fdcfcf81bacd0167d41bbb00000000001ae101faedac5851e32b9b23b5f9411a8c2bac4aae3ed4dd7b811dd1a72ea4aa7100000000071b2de2014155575600000000000c28352c000027108c4998cbd2597ba1063a502db85e03530a735ffd010055005dd5ede8b038c39f015746942820595ed69f30c00c3d3700f01d9ec55e0277000000000005f5e9770000000000000001fffffff80000000067d41bbb0000000067d41bbb0000000005f5e10000000000000000010ce0f0a887c52885bbcb0eb8bd732776b5d6f92ce1f1c57b8ff0b427e553ec5006d5ae8ff57c48a8a1d9e824a0bac70136ad8401914cfe7cdd30ca18acda87b1afde8cab090b458d7d5f557d07b4c671d816c4e447a5c9da7ae4fe8e2888bb89f79f82e2a3dfa8b1be79cba0451f417286a9563a5f6c1c1a4339d78f582ec35a286f65bd7dc31d70ffaa7078d362120b7f6a89356cc703fee08374f995670153545dd427d38d68ceb3b506678de863004f4147ce3fe461340e0d79864581deadb8f69ca31b95fce793fef3ff1d87a8bdded9753e15413badab66885c85d557743e98356e54f0947ebe3ff56e391b4dc305000000000000000000000000000000000000000000",
        "nonce": "0x1",
        "chainId": "0xdef1"
      },
      "additionalContracts": [],
      "isFixedGasLimit": false
    }
  ],
  "receipts": [
    {
      "status": "0x1",
      "cumulativeGasUsed": "0x82a30",
      "logs": [],
      "logsBloom": "0x00000000000000000000000000000000000000000000000000000000000000000000000000000000000000000000000000000000000000000000000000000000000000000000000000000000000000000000000000000000000000000000000000000000000000000000000000000000000000000000000000000000000000000000000000000000000000000000000000000000000000000000000000000000000000000000000000000000000000000000000000000000000000000000000000000000000000000000000000000000000000000000000000000000000000000000000000000000000000000000000000000000000000000000000000000000",
      "type": "0x2",
      "transactionHash": "0x0395d2b7c3ee3fab93efbe7d62fbbfcf252902b89ab917b0dc10c1a3a81a437d",
      "transactionIndex": "0x0",
      "blockHash": "0x81cd15daf25ca803e51e889efa7961aaf22c29b5b0424289b391c1b1bd8bed7d",
      "blockNumber": "0x80ef6b",
      "gasUsed": "0x82a30",
      "effectiveGasPrice": "0x926",
      "blobGasPrice": "0x1",
      "from": "0xf39fd6e51aad88f6f4ce6ab8827279cfffb92266",
      "to": null,
      "contractAddress": "0x5fbdb2315678afecb367f032d93f642f64180aa3"
    },
    {
      "status": "0x1",
      "cumulativeGasUsed": "0x33cdc",
      "logs": [
        {
          "address": "0x2880ab155794e7179c9ee2e38200202908c17b43",
          "topics": [
            "0xd06a6b7f4918494b3719217d1802786c1f5112a6c1d88fe2cfec00b4584f6aec",
            "0x5dd5ede8b038c39f015746942820595ed69f30c00c3d3700f01d9ec55e027700"
          ],
          "data": "0x0000000000000000000000000000000000000000000000000000000067d41bbb0000000000000000000000000000000000000000000000000000000005f5e9770000000000000000000000000000000000000000000000000000000000000001",
          "blockHash": "0x545db9f080374476987f662c5a5fcdb713a15476e447340f53ad94dd048a0575",
          "blockNumber": "0x80ef6c",
          "blockTimestamp": "0x67d4195a",
          "transactionHash": "0x0150349a62c677afa1847a124c9f57b646bacad2e9f7d8efca8360f8613e84a3",
          "transactionIndex": "0x0",
          "logIndex": "0x0",
          "removed": false
        }
      ],
      "logsBloom": "0x00000000000000000000002000000000000000000000000000000000000000000200000000000000400000000000000000000000000000000000000000020000000000000000000000000000000000000000000000000000000000000002000000000000000000000000000000000000000000000000000000000000000000000000000000000000000000000000000000000000010000000000000000000000000000000000000000000000000000000000000000010001000000000000000000000000000000000000000000000000000000000000000000000000000000000000000000000000000000000000000000000000000000000000800000000000",
      "type": "0x2",
      "transactionHash": "0x0150349a62c677afa1847a124c9f57b646bacad2e9f7d8efca8360f8613e84a3",
      "transactionIndex": "0x0",
      "blockHash": "0x545db9f080374476987f662c5a5fcdb713a15476e447340f53ad94dd048a0575",
      "blockNumber": "0x80ef6c",
      "gasUsed": "0x33cdc",
      "effectiveGasPrice": "0x90b",
      "blobGasPrice": "0x1",
      "from": "0xf39fd6e51aad88f6f4ce6ab8827279cfffb92266",
      "to": "0x5fbdb2315678afecb367f032d93f642f64180aa3",
      "contractAddress": null
    }
  ],
  "libraries": [],
  "pending": [],
  "returns": {},
  "timestamp": 1741954059,
  "chain": 57073,
  "commit": "2a3104c"
}